:020000040800F2
:10000000005000206D260008BD260008BD2600080F
:10001000BD260008BD260008BD260008000000001F
:10002000000000000000000000000000BD260008E5
:10003000BD26000800000000BD260008851000084D
:10004000BD260008BD260008BD260008BD26000804
:10005000BD260008BD260008BD260008BD260008F4
:10006000BD260008BD260008BD260008BD260008E4
:10007000BD260008BD260008BD260008BD260008D4
:10008000BD260008BD260008BD260008BD260008C4
:10009000BD260008BD260008BD260008BD260008B4
:1000A000BD260008BD260008BD260008BD260008A4
:1000B000BD260008BD260008BD260008BD26000894
:1000C000BD260008BD260008BD260008BD26000884
:1000D000BD260008BD260008BD260008BD26000874
:1000E000BD260008BD26000800000000BD2600084F
:1000F000BD260008BD260008BD260008BD26000854
:10010000BD260008BD260008BD260008BD26000843
:10011000BD260008BD260008BD260008BD26000833
:10012000BD260008BD260008BD260008BD26000823
:1001300010B5054C237833B9044B13B10448AFF321
:1001400000800123237010BDE401002000000000A6
:100150006C6E000808B5034B1BB103490348AFF3AD
:10016000008008BD00000000E80100206C6E00085F
:10017000034613F8012B002AFBD1181A01387047E7
:1001800081F0004102E000BF83F0004330B54FEA48
:1001900041044FEA430594EA050F08BF90EA020FB5
:1001A0001FBF54EA000C55EA020C7FEA645C7FEA48
:1001B000655C00F0E2804FEA5454D4EB5555B8BF6B
:1001C0006D420CDD2C4480EA020281EA030382EADC
:1001D000000083EA010180EA020281EA0303362D6E
:1001E00088BF30BD11F0004F4FEA01314FF4801C41
:1001F0004CEA113102D0404261EB410113F0004F53
:100200004FEA03334CEA133302D0524263EB430309
:1002100094EA050F00F0A780A4F10104D5F1200EA7
:100220000DDB02FA0EFC22FA05F2801841F1000102
:1002300003FA0EF2801843FA05F359410EE0A5F1D6
:1002400020050EF1200E012A03FA0EFC28BF4CF007
:10025000020C43FA05F3C01851EBE37101F00045BD
:1002600007D54FF0000EDCF1000C7EEB00006EEBCA
:100270000101B1F5801F1BD3B1F5001F0CD3490854
:100280005FEA30004FEA3C0C04F101044FEA4452AB
:1002900012F5800F80F09A80BCF1004F08BF5FEA32
:1002A000500C50F1000041EB045141EA050130BD12
:1002B0005FEA4C0C404141EB0101013C28BFB1F524
:1002C000801FE9D291F0000F04BF01460020B1FA6F
:1002D00081F308BF2033A3F10B03B3F120020CDA42
:1002E0000C3208DD02F1140CC2F10C0201FA0CF020
:1002F00021FA02F10CE002F11402D8BFC2F1200C85
:1003000001FA02F120FA0CFCDCBF41EA0C0190403A
:10031000E41AA2BF01EB0451294330BD6FEA040483
:100320001F3C1CDA0C340EDC04F11404C4F120026E
:1003300020FA04F001FA02F340EA030021FA04F380
:1003400045EA030130BDC4F10C04C4F1200220FAD7
:1003500002F001FA04F340EA0300294630BD21FA15
:1003600004F0294630BD94F0000F83F4801306BFDB
:1003700081F480110134013D4EE77FEA645C18BFCF
:100380007FEA655C29D094EA050F08BF90EA020F66
:1003900005D054EA000C04BF1946104630BD91EA5E
:1003A000030F1EBF0021002030BD5FEA545C05D161
:1003B0004000494128BF41F0004130BD14F58004A0
:1003C0003CBF01F5801130BD01F0004545F0FE4114
:1003D00041F470014FF0000030BD7FEA645C1ABF49
:1003E000194610467FEA655C1CBF0B46024650EA80
:1003F000013406BF52EA033591EA030F41F40021AC
:1004000030BD00BF90F0000F04BF0021704730B531
:100410004FF4806404F132044FF000054FF0000106
:1004200050E700BF90F0000F04BF0021704730B5C7
:100430004FF4806404F1320410F0004548BF40429C
:100440004FF000013EE700BF42004FEAE2014FEAF1
:1004500031014FEA02701FBF12F07F4393F07F4FCC
:1004600081F06051704732F07F4208BF704793F0CF
:100470007F4F04BF41F40021704730B54FF46074E2
:1004800001F0004521F000411CE700BF50EA0102E5
:1004900008BF704730B54FF000050AE050EA01028E
:1004A00008BF704730B511F0004502D5404261EBFE
:1004B00041014FF4806404F132045FEA915C3FF43F
:1004C000D8AE4FF003025FEADC0C18BF03325FEADC
:1004D000DC0C18BF033202EBDC02C2F1200300FA8D
:1004E00003FC20FA02F001FA03FE40EA0E0021FAB2
:1004F00002F11444BDE600BF70B54FF0FF0C4CF4A0
:10050000E06C1CEA11541DBF1CEA135594EA0C0F51
:1005100095EA0C0F00F0DEF82C4481EA030621EA8C
:100520004C5123EA4C5350EA013518BF52EA0335C7
:1005300041F4801143F4801338D0A0FB02CE4FF079
:100540000005E1FB02E506F00042E0FB03E54FF0A9
:100550000006E1FB03569CF0000F18BF4EF0010EA1
:10056000A4F1FF04B6F5007F64F5407404D25FEA9D
:100570004E0E6D4146EB060642EAC62141EA555150
:100580004FEAC52040EA5E504FEACE2EB4F1FD0C92
:1005900088BFBCF5E06F1ED8BEF1004F08BF5FEA10
:1005A000500E50F1000041EB045170BD06F00046C2
:1005B00046EA010140EA020081EA0301B4EB5C046F
:1005C000C2BFD4EB0C0541EA045170BD41F4801167
:1005D0004FF0000E013C00F3AB8014F1360FDEBF8C
:1005E000002001F0004170BDC4F10004203C35DA68
:1005F0000C341BDC04F11404C4F1200500FA05F3EB
:1006000020FA04F001FA05F240EA020001F000428B
:1006100021F0004110EBD37021FA04F642EB060101
:100620005EEA430E08BF20EAD37070BDC4F10C042B
:10063000C4F1200500FA04F320FA05F001FA04F2EF
:1006400040EA020001F0004110EBD37041F10001DB
:100650005EEA430E08BF20EAD37070BDC4F12005E6
:1006600000FA05F24EEA020E20FA04F301FA05F24E
:1006700043EA020321FA04F001F0004121FA04F2F6
:1006800020EA020000EBD3705EEA430E08BF20EAC6
:10069000D37070BD94F0000F0FD101F00046400000
:1006A00041EB010111F4801F08BF013CF7D041EA82
:1006B000060195F0000F18BF704703F00046520086
:1006C00043EB030313F4801F08BF013DF7D043EA57
:1006D0000603704794EA0C0F0CEA135518BF95EA0D
:1006E0000C0F0CD050EA410618BF52EA4306D1D194
:1006F00081EA030101F000414FF0000070BD50EAB3
:10070000410606BF1046194652EA430619D094EA3C
:100710000C0F02D150EA013613D195EA0C0F05D126
:1007200052EA03361CBF104619460AD181EA03017A
:1007300001F0004141F0FE4141F470014FF0000032
:1007400070BD41F0FE4141F4780170BD70B54FF0CD
:10075000FF0C4CF4E06C1CEA11541DBF1CEA13554D
:1007600094EA0C0F95EA0C0F00F0A7F8A4EB05042F
:1007700081EA030E52EA03354FEA013100F0888026
:100780004FEA03334FF0805545EA131343EA1263EF
:100790004FEA022245EA111545EA10654FEA0026A4
:1007A0000EF000419D4208BF964244F1FD0404F55D
:1007B000407402D25B084FEA3202B61A65EB0305B9
:1007C0005B084FEA32024FF480104FF4002CB6EB76
:1007D000020E75EB030E22BFB61A754640EA0C00F6
:1007E0005B084FEA3202B6EB020E75EB030E22BF36
:1007F000B61A754640EA5C005B084FEA3202B6EB77
:10080000020E75EB030E22BFB61A754640EA9C0035
:100810005B084FEA3202B6EB020E75EB030E22BF05
:10082000B61A754640EADC0055EA060E18D04FEAC3
:10083000051545EA16754FEA06164FEAC30343EA63
:1008400052734FEAC2025FEA1C1CC0D111F4801F30
:100850000BD141EA00014FF000004FF0004CB6E729
:1008600011F4801F04BF01430020B4F1FD0C88BFC8
:10087000BCF5E06F3FF6AFAEB5EB030C04BFB6EBD3
:10088000020C5FEA500C50F1000041EB045170BDC6
:100890000EF0004E4EEA113114EB5C04C2BFD4EBF3
:1008A0000C0541EA045170BD41F480114FF0000E77
:1008B000013C90E645EA060E8DE60CEA135594EAF3
:1008C0000C0F08BF95EA0C0F3FF43BAF94EA0C0FF6
:1008D0000AD150EA01347FF434AF95EA0C0F7FF46B
:1008E00025AF104619462CE795EA0C0F06D152EABF
:1008F00003353FF4FDAE1046194622E750EA4106A3
:1009000018BF52EA43067FF4C5AE50EA41047FF4B3
:100910000DAF52EA43057FF4EBAE12E74FF0FF3C18
:1009200006E000BF4FF0010C02E000BF4FF0010CE9
:100930004DF804CD4FEA410C7FEA6C5C4FEA430C62
:1009400018BF7FEA6C5C1BD001B050EA410C0CBFB1
:1009500052EA430C91EA030F02BF90EA020F002013
:10096000704710F1000F91EA030F58BF994208BF7A
:1009700090422CBFD8176FEAE37040F00100704737
:100980004FEA410C7FEA6C5C02D150EA013C07D18E
:100990004FEA430C7FEA6C5CD6D152EA033CD3D0D9
:1009A0005DF8040B704700BF8446104662468C46D3
:1009B0001946634600E000BF01B5FFF7B7FF002806
:1009C00048BF10F1000F01BD4DF808EDFFF7F4FF2F
:1009D0000CBF012000205DF808FB00BF4DF808EDBA
:1009E000FFF7EAFF34BF012000205DF808FB00BFDD
:1009F0004DF808EDFFF7E0FF94BF012000205DF8FF
:100A000008FB00BF4DF808EDFFF7CEFF94BF0120B3
:100A100000205DF808FB00BF4DF808EDFFF7C4FFAC
:100A200034BF012000205DF808FB00BF4FEA410CF5
:100A30007FEA6C5C02D150EA013C0AD14FEA430CD8
:100A40007FEA6C5C02D152EA033C02D14FF0000015
:100A500070474FF0010070474FEA410212F5001253
:100A600015D211D56FF47873B3EB625212D94FEAF5
:100A7000C12343F0004343EA505311F0004F23FADF
:100A800002F018BF404270474FF00000704750EA34
:100A9000013005D111F0004008BF6FF000407047F1
:100AA0004FF00000704700BF4A0011D212F500124B
:100AB00011D20DD56FF47873B3EB62520ED44FEAB6
:100AC000C12343F0004343EA505323FA02F0704736
:100AD0004FF00000704750EA013002D14FF0FF3074
:100AE00070474FF0000070474FEA4102B2F1E04317
:100AF00024BFB3F5001CDCF1FE5C0DD901F0004C05
:100B00004FEAC0024CEA5070B2F1004F40EB830054
:100B100008BF20F00100704711F0804F21D113F180
:100B20003872BCBF01F00040704741F480114FEAB9
:100B30005252C2F11802C2F1200C10FA0CF320FA42
:100B400002F018BF40F001004FEAC1234FEAD3235F
:100B500003FA0CFC40EA0C0023FA02F34FEA4303C9
:100B6000CCE77FEA625307D150EA01331EBF4FF052
:100B7000FE4040F44000704701F0004040F0FE406D
:100B800040F40000704700BF38B505460C4600220F
:100B9000002328462146FFF721FF28B92846214691
:100BA000BDE8384000F00AB8284604F1004100F0E2
:100BB00005F8404261EB410138BD00BFD0B50022CD
:100BC0000B4B06460F46FFF797FCFFF76DFF0446F9
:100BD000FFF718FC0022074BFFF78EFC02460B467E
:100BE00030463946FFF7D0FAFFF75EFF2146D0BD09
:100BF0000000F03D0000F04180B584B000AF7860A7
:100C00000123FB737B68002B02D10023FB73A4E05C
:100C10007B681B79C3F34103DBB2022B28D0022B84
:100C200037DC002B02D0012B11D032E04D4BBB60E2
:100C30004D4B9B694C4A43F4804393614B4B19687D
:100C40007B681B681A46B86800F044F924E0484BFA
:100C5000BB60454BDB69444A43F40033D361454BE9
:100C600019687B681B681A46B86800F033F913E00E
:100C7000414BBB603C4BDB693B4A43F48023D3616F
:100C80003C4B19687B681B681A46B86800F022F96B
:100C900002E00023FB7300BFB86800F03EF9BB68B8
:100CA000DB6823F480537A681279C2F30002D2B26F
:100CB00012031A43BB68DA607B681B7903F01803E0
:100CC000DBB2102B13D0BB68DB6843F48062BB68D7
:100CD000DA60BB68DB6823F480637A681279C2F358
:100CE000C102D2B292021A43BB68DA6005E0BB6867
:100CF000DB6823F48062BB68DA60BB681B697A68D2
:100D0000127902F06002D2B2002A01D0182200E06B
:100D10000C221A43BB681A61BB68DB687A68527997
:100D200002F00302D2B2002A01D0042200E0022223
:100D30001A43BB68DA60BB68DB687A68527902F0F4
:100D40000C02D2B2002A01D0102200E008221A437D
:100D5000BB68DA60B86800F0D1F8FB7B1846103742
:100D6000BD4680BD00380140001002400800002050
:100D700000440040040000200048004080B485B0DA
:100D800000AF78600B46FB700123FB737B68002B80
:100D900006D07B685B7903F00303DBB2012B02D141
:100DA0000023FB7323E07B681B79C3F34103DBB2B1
:100DB000022B0CD0022B0DDC002B02D0012B03D018
:100DC00008E00E4BBB6008E00D4BBB6005E00D4B2F
:100DD000BB6002E00023FB7300BF00BFBB681B6861
:100DE00003F08003002BF9D0FA78BB685A60FB7BD4
:100DF00018461437BD4680BC704700BF003801401C
:100E0000004400400048004080B586B000AFF86064
:100E1000B9601346FB800123FB7500233B61FB682F
:100E2000002B09D0BB68002B06D0FB685B7903F070
:100E30000303DBB2012B02D10023FB7516E0002374
:100E40003B610FE0BA683B6913441B781946F868A8
:100E5000FFF794FF03461A46FB7D1340FB753B6981
:100E600001333B61FB883A699A42EBD3FB7D18461C
:100E70001837BD4680BD0EB480B59FB000AF786016
:100E8000012387F8773000233B6107F114036022C8
:100E90000021184602F0C6FB07F18803FB6007F14A
:100EA0001003FA68D7F88410184602F0B1FB07F176
:100EB0001003642219467868FFF7A6FF034687F8F7
:100EC000773097F8773018467C37BD46BDE88040CC
:100ED00003B0704780B485B000AFF860B9607A6045
:100EE0007B685A08BB681A447B68B2FBF3F2FB6864
:100EF0009A6000BF1437BD4680BC704780B483B091
:100F000000AF78607B68DB6843F400527B68DA608E
:100F100000BF0C37BD4680BC704780B483B000AFC3
:100F200078607B68DB6823F400527B68DA6000BF7E
:100F30000C37BD4680BC704780B485B000AF786088
:100F40000B46FB700123FB73194B1B68184A23F0F7
:100F5000010313607B68B3F1807F02D30023FB732E
:100F600004E0134A7B6823F07F435360104B002258
:100F70009A60FB78002B02D0FB78012B0AD10C4B36
:100F80001B6823F00403FA7892001146084A0B43C9
:100F9000136001E00023FB73054B1B68044A23F434
:100FA00080331360FB7B18461437BD4680BC704706
:100FB00010E000E080B400AF0A4B1B68094A23F040
:100FC00001031360074B00225A60064B00229A600F
:100FD000044B1B68034A23F48033136000BFBD46F3
:100FE00080BC704710E000E080B485B000AF78604E
:100FF0000023FB60204B1B68204AA2FB03239B09B4
:10100000013BFB601E4B1B6803F00403002B02D165
:10101000FB68DB08FB601A4AFB6823F07F435360E0
:10102000174B00229A60164B1B68154A43F00103C8
:1010300013600023BB6009E000BF114B1B6803F481
:101040008033002BF9D0BB680133BB60BA687B6882
:101050009A42F1D30A4B1B68094A23F0010313603B
:10106000074B00225A60064B00229A6000BF1437DB
:10107000BD4680BC704700BF00000020D34D621009
:1010800010E000E080B500AF074B1B68002B02D0DA
:10109000054B1B689847054B1B78DBB2002B01D131
:1010A000FFF788FF00BF80BD00020020040200207F
:1010B00090B482B000AF0446084611461A46234653
:1010C000FB8003467B710B463B711346FB70FEE7CA
:1010D00080B584B000AF03463960FB710123FB7318
:1010E0003B68002B02D0FB79202B02D90023FB7335
:1010F0001AE0FB79184600F0A7F803461A463B6849
:101100001A70FB79184600F077F80346BB73BB7B77
:10111000012B09D13B681B78002B0CBF0123002356
:10112000DBB21A463B681A70FB7B18461037BD4687
:1011300080BD80B588B000AF03463960FB710123E4
:10114000FB770023FB730023BB6100237B61142327
:101150003B6119E007F10F02FB7911461846FFF7D2
:10116000B7FF0346FB77FB7B012B05D1BB6901333E
:10117000BB6100237B6104E07B6901337B61002359
:10118000BB610120FFF730FFBA693B699A4203D285
:101190007A693B699A42DDD3FA7B3B681A70FB7F20
:1011A00018462037BD4680BD80B584B000AF0346E9
:1011B0003960FB710123FB730023BB7307F10E023F
:1011C000FB7911461846FFF7B4FF0346FB73BA7B61
:1011D0003B681A7008E007F10E02FB7911461846C9
:1011E000FFF776FF0346FB73BB7B012BF3D0FB7B42
:1011F00018461037BD4680BD80B485B000AF0346A9
:10120000FB710023FB73FA79074913465B00134413
:101210000B445B78C3F38113DBB2FB73FB7B184693
:101220001437BD4680BC7047446F000880B582B05B
:1012300000AF0346FB71FB79184600F061F800BF70
:101240000837BD4680BD000080B584B000AF0346BE
:10125000FB710023FB73FB79202B06D90A230022A4
:1012600000217820FFF724FF3DE0FB79204A12F8A7
:101270001330C3F30103DBB2032B24D0032B31DC87
:10128000012B02D0022B0FD02CE01A4B9B68FA796D
:10129000174911F81220C2F38302D2B2D340DBB255
:1012A00003F00103FB731EE0134B9B68FA791049AE
:1012B00011F81220C2F38302D2B2D340DBB203F0A2
:1012C0000103FB730FE00D4B9B68FA79084911F895
:1012D0001220C2F38302D2B2D340DBB203F0010387
:1012E000FB7300E000BFFB7B18461037BD4680BD96
:1012F000046F000800080140000C0140001001408C
:1013000080B584B000AF0346FB710023FB73FB790B
:10131000202B06D90A23112200217820FFF7C8FECE
:1013200074E0FB793C4A5B0013445B78012B6DD180
:10133000FB79394A12F81330C3F30103DBB2032BF4
:1013400044D0032B61DC012B02D0022B1FD05CE0C8
:10135000324BDB68FA79304911F81220C2F383026C
:10136000D2B2114601228A4011462C4A4B40D3602A
:101370002A4BDB68FA79284911F81220C2F383025C
:10138000D2B2D340DBB203F00103FB733EE0234B48
:10139000DB68FA79204911F81220C2F38302D2B235
:1013A000114601228A4011461C4A4B40D3601C4B17
:1013B000DB68FA79184911F81220C2F38302D2B21D
:1013C000D340DBB203F00103FB731FE0154BDB6876
:1013D000FA79114911F81220C2F38302D2B21146F0
:1013E00001228A4011460F4A4B40D3600D4BDB6807
:1013F000FA79094911F81220C2F38302D2B2D3401C
:10140000DBB203F00103FB7300E000BFFB7B184677
:101410001037BD4680BD00BF046F000800080140C2
:10142000000C01400010014090B585B000AF78601D
:101430007B68002B06D10C23002200217C20FFF7C3
:1014400037FEEFE00023FB60784B9B69774A43F05F
:1014500004039361754B9B69744A43F008039361DD
:10146000724B9B69714A43F0100393610023FB6048
:10147000D1E0FA6813465B0013447A6813441846B7
:1014800000F010F9FA6813465B0013447A681344BD
:10149000184600F085FA7968FA6813465B00134431
:1014A0000B441B78C3F30103DBB2022B5FD0022B8A
:1014B00000F38980002B02D0012B2CD083E05C4B01
:1014C000D9687868FA6813465B00134403441B78B4
:1014D000C3F38303DBB21A4601239340DB43194075
:1014E0007868FA6813465B00134403449B78C3F39F
:1014F0000003DBB21C467868FA6813465B001344AD
:1015000003441B78C3F38303DBB204FA03F3484AB2
:101510000B43D36058E0474BD9687868FA681346A4
:101520005B00134403441B78C3F38303DBB21A4606
:1015300001239340DB4319407868FA6813465B0047
:10154000134403449B78C3F30003DBB21C46786862
:10155000FA6813465B00134403441B78C3F3830308
:10156000DBB204FA03F3334A0B43D3602CE0324B73
:10157000D9687868FA6813465B00134403441B7803
:10158000C3F38303DBB21A4601239340DB431940C4
:101590007868FA6813465B00134403449B78C3F3EE
:1015A0000003DBB21C467868FA6813465B001344FC
:1015B00003441B78C3F38303DBB204FA03F31E4A2C
:1015C0000B43D36000E000BF7968FA6813465B0004
:1015D00013440B449B78C3F34003DBB2012B17D1B8
:1015E0007968FA6813465B0013440B441B78C3F315
:1015F0000103DBB218461149FA6813465B00134435
:101600000B441B78C3F38303DBB2194600F01AF8CE
:10161000FB680133FB60FB681F2B7FF62AAF084B8A
:1016200001221A7000BF1437BD4690BD0010024061
:1016300000080140000C014000100140446F000808
:101640000502002080B485B000AF03460A46FB7156
:101650001346BB71FB79022B0CD0022B0DDC002B47
:1016600002D0012B03D008E00B4BFB6006E00B4BD4
:10167000FB6003E00A4BFB6000E000BFFB689B6976
:10168000BA79012101FA02F21A43FB689A6100BF9C
:101690001437BD4680BC704700080140000C014073
:1016A0000010014080B485B000AF78607B681B7883
:1016B000C3F30103DBB2022B0CD0022B0DDC002B99
:1016C00002D0012B03D008E0AF4BFB6006E0AF4B2C
:1016D000FB6003E0AE4BFB6000E000BF7B685B7823
:1016E000C3F30203DBB2032B00F2468101A252F8DE
:1016F00023F000BF05170008A717000845180008C9
:10170000E11800087B681B78C3F38303DBB2072B67
:101710001FD8FB681B687A681278C2F38302D2B2C2
:1017200092000132012101FA02F2D2431A40FB6811
:101730001A60FB681B687A681278C2F38302D2B21F
:101740009200012101FA02F2D2431A40FB681A60AA
:1017500014E17B681B78C3F38303DBB2072B40F2F1
:101760000D81FB685B687A681278C2F38302D2B29B
:10177000083A92000132012101FA02F2D2431A40E2
:10178000FB685A60FB685B687A681278C2F3830270
:10179000D2B2083A9200012101FA02F2D2431A4071
:1017A000FB685A60EAE07B681B78C3F38303DBB213
:1017B000072B1ED8FB681B687A681278C2F3830275
:1017C000D2B292000132012101FA02F2D2431A4050
:1017D000FB681A60FB681B687A681278C2F38302A0
:1017E000D2B29200012101FA02F21A43FB681A6098
:1017F000C6E07B681B78C3F38303DBB2072B40F2A0
:10180000BF80FB685B687A681278C2F38302D2B249
:10181000083A92000132012101FA02F2D2431A4041
:10182000FB685A60FB685B687A681278C2F38302CF
:10183000D2B2083A9200012101FA02F21A43FB687F
:101840005A609DE07B681B78C3F38303DBB2072BF0
:101850001ED8FB681B687A681278C2F38302D2B282
:1018600092000132012101FA02F21A43FB681A6068
:10187000FB681B687A681278C2F38302D2B29200C6
:10188000012101FA02F2D2431A40FB681A6079E0A2
:101890007B681B78C3F38303DBB2072B72D9FB6829
:1018A0005B687A681278C2F38302D2B2083A920077
:1018B0000132012101FA02F21A43FB685A60FB6807
:1018C0005B687A681278C2F38302D2B2083A920057
:1018D000012101FA02F2D2431A40FB685A6051E03A
:1018E0007B681B78C3F38303DBB2072B1DD8FB682F
:1018F0001B687A681278C2F38302D2B29200013276
:10190000012101FA02F21A43FB681A60FB681B68A6
:101910007A681278C2F38302D2B29200012101FAEE
:1019200002F21A43FB681A6034E07B681B78C3F349
:101930008303DBB2072B2DD9FB685B687A681278CA
:10194000C2F38302D2B2083A92000132012101FAB5
:1019500002F21A43FB685A60FB685B687A68127887
:10196000C2F38302D2B2083A9200012101FA02F2D4
:101970001A43FB685A600DE000BF0CE000BF0AE0AC
:1019800000BF08E000BF06E000080140000C014075
:101990000010014000BF00BF1437BD4680BC704737
:1019A00080B485B000AF78607B681B78C3F3010317
:1019B000DBB2022B0CD0022B0DDC002B02D0012B52
:1019C00003D008E09B4BFB6006E09B4BFB6003E011
:1019D0009A4BFB6000E000BF7B685B7803F0380344
:1019E000DBB2002B06D07B685B7803F03803DBB2F8
:1019F000202B52D17B681B78C3F38303DBB2072B08
:101A000020D8FB681B687A681278C2F38302D2B2CE
:101A100092000232012101FA02F2D2431A40FB681D
:101A20001A60FB681B687A681278C2F38302D2B22C
:101A300092000332012101FA02F2D2431A40FB68FC
:101A40001A6060E17B681B78C3F38303DBB2072B6A
:101A500040F25981FB685B687A681278C2F38302AE
:101A6000D2B2083A92000232012101FA02F2D243C4
:101A70001A40FB685A60FB685B687A681278C2F3A8
:101A80008302D2B2083A92000332012101FA02F233
:101A9000D2431A40FB685A6035E17B685B7803F0FB
:101AA0003803DBB2082B0DD07B685B7803F038037A
:101AB000DBB2282B57D17B685B7823F03F03DBB286
:101AC000002B50D17B681B78C3F38303DBB2072B59
:101AD0001FD8FB681B687A681278C2F38302D2B2FF
:101AE00092000332012101FA02F2D2431A40FB684C
:101AF0001A60FB681B687A681278C2F38302D2B25C
:101B000092000232012101FA02F21A43FB681A60C4
:101B1000FBE07B681B78C3F38303DBB2072B40F247
:101B2000F480FB685B687A681278C2F38302D2B2F1
:101B3000083A92000332012101FA02F2D2431A401C
:101B4000FB685A60FB685B687A681278C2F38302AC
:101B5000D2B2083A92000232012101FA02F21A438B
:101B6000FB685A60D1E07B685B7803F03803DBB236
:101B7000102B0DD07B685B7803F03803DBB2282B89
:101B80005ED17B685B7823F03F03DBB2402B57D1FB
:101B90007B681B78C3F38303DBB2072B1FD8FB687A
:101BA0001B687A681278C2F38302D2B292000332C1
:101BB000012101FA02F21A43FB681A60FB681B68F4
:101BC0007A681278C2F38302D2B292000232012103
:101BD00001FA02F2D2431A40FB681A6097E07B6870
:101BE0001B78C3F38303DBB2072B40F29080FB68C2
:101BF0005B687A681278C2F38302D2B2083A920024
:101C00000332012101FA02F21A43FB685A60FB68B1
:101C10005B687A681278C2F38302D2B2083A920003
:101C20000232012101FA02F2D2431A40FB685A60E3
:101C30006DE000BF00080140000C014000100140B1
:101C40007B685B7803F03803DBB2182B0DD07B6820
:101C50005B7803F03803DBB2282B59D17B685B78C3
:101C600023F03F03DBB2802B52D17B681B78C3F398
:101C70008303DBB2072B1ED8FB681B687A681278D7
:101C8000C2F38302D2B292000332012101FA02F2BE
:101C90001A43FB681A60FB681B687A681278C2F303
:101CA0008302D2B292000232012101FA02F21A43F7
:101CB000FB681A602CE07B681B78C3F38303DBB2FC
:101CC000072B25D9FB685B687A681278C2F3830218
:101CD000D2B2083A92000332012101FA02F21A4309
:101CE000FB685A60FB685B687A681278C2F383020B
:101CF000D2B2083A92000232012101FA02F21A43EA
:101D0000FB685A6004E000BF02E000BF00E000BFD3
:101D100000BF1437BD4680BC704700BF80B584B09B
:101D200000AF78600123FB737B68002B02D1002396
:101D3000FB732AE0786800F0B3FA0346FB737B6814
:101D40005B7823F03F03DBB2002B02D100F0C0F937
:101D50001BE07B685B7823F03F03DBB2402B02D1B2
:101D600000F0D2F911E07B685B7823F03F03DBB22F
:101D7000802B08D1786800F0E3F903461A46FB7B14
:101D80001340FB7301E00023FB73FB7B1846103705
:101D9000BD4680BD80B485B000AF0346FB71012312
:101DA000FB73FB790F2B00F29F8001A252F823F006
:101DB000F11D0008E91E0008E91E0008E91E0008E0
:101DC000E91E0008E91E0008E91E0008E91E0008D7
:101DD0000B1E0008271E0008431E00085F1E000897
:101DE0007B1E0008951E0008B11E0008CD1E0008CD
:101DF000424B5B68FA7912011146404A0B4353602B
:101E00003F4B1B683F4A136071E03C4B5B68FA79BB
:101E100012011146394A0B435360394B1B685B086A
:101E2000384A136063E0354B5B68FA79120111465A
:101E3000324A0B435360324B1B689B08314A136094
:101E400055E02E4B5B68FA79120111462B4A0B4381
:101E500053602B4B1B68DB082A4A136047E0274B73
:101E60005B68FA7912011146244A0B435360244BF4
:101E70001B681B09234A136039E0204B5B68FA7921
:101E8000120111461D4A0B4353601D4B1B689B09F1
:101E90001C4A1360194B5B68FA7912011146174A04
:101EA0000B435360164B1B68DB09164A13601EE098
:101EB000124B5B68FA7912011146104A0B435360CA
:101EC0000F4B1B681B0A0F4A136010E00B4B5B683B
:101ED000FA7912011146094A0B435360084B1B68FB
:101EE0005B0A084A136002E00023FB7300BFFB7B20
:101EF00018461437BD4680BC704700BF0010024032
:101F0000000000200C00002080B485B000AF034624
:101F1000FB710123FB73FB79072B58D801A252F800
:101F200023F000BF451F0008CF1F0008CF1F000887
:101F3000CF1F00085F1F00087B1F0008971F0008C5
:101F4000B31F0008264B5B68FA7912021146244A37
:101F50000B435360234B1B68234A13603AE0204B2A
:101F60005B68FA79120211461D4A0B4353601D4B00
:101F70001B685B081C4A13602CE0194B5B68FA79FC
:101F800012021146164A0B435360164B1B689B08FE
:101F9000154A13601EE0124B5B68FA791202114673
:101FA0000F4A0B4353600F4B1B68DB080E4A13604C
:101FB00010E00B4B5B68FA7912021146084A0B439A
:101FC0005360084B1B681B09074A136002E000239B
:101FD000FB7300BFFB7B18461437BD4680BC7047BF
:101FE00000100240000000200400002080B485B0F2
:101FF00000AF0346FB710123FB73FB79072B58D815
:1020000001A252F823F000BF29200008B3200008E5
:10201000B3200008B3200008432000085F20000818
:102020007B20000897200008264B5B68FA79D202D3
:102030001146244A0B435360234B1B68234A136009
:102040003AE0204B5B68FA79D20211461D4A0B43F5
:1020500053601D4B1B685B081C4A13602CE0194B36
:102060005B68FA79D2021146164A0B435360164B4D
:102070001B689B08154A13601EE0124B5B68FA79D7
:10208000D20211460F4A0B4353600F4B1B68DB080B
:102090000E4A136010E00B4B5B68FA79D2021146CE
:1020A000084A0B435360084B1B681B09074A13601F
:1020B00002E00023FB7300BFFB7B18461437BD46CC
:1020C00080BC704700100240000000200800002083
:1020D00080B400AF094B1B68084A43F0010313604A
:1020E00000BF064B1B6803F00203002BF9D0044B22
:1020F000044A1A6000BFBD4680BC70470010024011
:102100000000002000127A0080B400AF094B1B6869
:10211000084A43F48033136000BF064B1B6803F486
:102120000033002BF9D0044B044A1A6000BFBD46AF
:1021300080BC7047001002400000002000127A00AE
:1021400080B584B000AF78600123FB730023BB73BC
:1021500001237B737B68002B02D10023FB7391E08A
:102160007B681B7823F00F03DBB2D02B0DD07B688C
:102170001B78C3F30313DBB2012B26D97B681B78D2
:10218000C3F30313DBB2072B1FD87B681B7823F044
:102190000F03DBB2D02B04D10623BB7302237B7366
:1021A00006E07B681B78C3F30313DBB2023BBB730F
:1021B000374B5B687A681278C2F30312D2B292048A
:1021C0001146334A0B43536001E00023FB737B68E5
:1021D0009B78C3F30103DBB2022B1ED0022B2DDC54
:1021E000002B02D0012B06D028E0FFF771FF294B0E
:1021F000294A1A6022E0FFF787FF264B274A1A6018
:10220000234B5B68224A43F480335360204B5B6866
:102210001F4A23F40033536010E0FFF775FF1D4B96
:102220001D4A1A601A4B5B68194A43F480335360A5
:10223000174B5B68164A43F400335360144B1B681A
:10224000134A43F08073136000BF114B1B6803F007
:102250000073002BF9D00E4B5B680D4A43F002036C
:10226000536000BF0A4B5B6803F00803082BF9D1E9
:10227000BB7B084A126803FB02F27B7BB2FBF3F3E1
:10228000044A1360FB7B18461037BD4680BD00BF73
:10229000001002400000002000093D0000127A00FA
:1022A00080B584B000AF78600123FB737B681B7836
:1022B000C3F30303DBB21846FFF76CFD0346FB7361
:1022C0007B685B78C3F30203DBB21846FFF78EFE30
:1022D00003461A46FB7B1340FB73294B1B68294AB4
:1022E00093420DD97B685B78C3F3C203DBB2184617
:1022F000FFF70AFE03461A46FB7B1340FB7307E019
:102300000420FFF701FE03461A46FB7B1340FB73D4
:102310001D4B1B681C4A43F010031360184B1B68CD
:102320001A4A934206D2184B1B68174A03F0080357
:1023300013601FE0124B1B68144A93420DD3104BDD
:102340001B68134A934208D20F4B1B6803F0080323
:102350000D4A43F0010313600CE0094B1B680C4A63
:10236000934207D3084B1B6803F00803064A43F067
:1023700002031360FB7B18461037BD4680BD00BFCB
:1023800000000020005125020020024000366E01AE
:10239000006CDC0280B582B000AF00F07DF803462F
:1023A0001A46364B1A700023FB710023BB710023C1
:1023B0007B7100233B710023FB70FB1D1946062037
:1023C000FEF7F2FE03461A462C4B1A70BB1D194647
:1023D0001E20FEF7E9FE03461A46284B1A707B1DA5
:1023E00019461F20FEF7E0FE03461A46234B1A70DB
:1023F0003B1D19460420FEF7D7FE03461A461F4B25
:102400001A70FB1C19460520FEF7CEFE03461A463D
:102410001A4B1A70BB79012B06D10020FEF706FF7C
:1024200017491848FEF727FDFB79012B06D11D201F
:10243000FEF7FCFE14491348FEF71DFD7B79012BC6
:1024400006D10120FEF7F2FE10490E48FEF713FDFB
:102450003B79012B06D10220FEF7E8FE0C49094822
:10246000FEF709FDFB78012BA7D10320FEF7DEFE66
:1024700008490448FEF7FFFC9FE700BF1800002052
:10248000886E000810000020A06E0008BC6E0008D6
:10249000D46E0008EC6E000880B582B000AF012356
:1024A000FB710F48FFF73AFC0346FB710021002047
:1024B000FEF742FD03461A46FB791340FB710948BB
:1024C000FEF7B2FF0848FEF797FB03461A46FB7972
:1024D0001340FB71FB7918460837BD4680BD00BF2D
:1024E000A46F0008446F00081000002080B400AF03
:1024F00001231846BD4680BC704780B582B000AF4E
:102500007860396001F0E0F8034616221A604FF057
:10251000FF3318460837BD4680BD80B582B000AF96
:1025200078604FF0FF317868FFF7E7FFFEE780B58E
:1025300086B000AFF860B9607A6000237B610AE082
:10254000AFF300800146BB685A1CBA60CAB21A7069
:102550007B6901337B617A697B689A42F0DB7B6837
:1025600018461837BD4680BD80B586B000AFF8600C
:10257000B9607A6000237B6109E0BB685A1CBA60CD
:102580001B781846AFF300807B6901337B617A6961
:102590007B689A42F1DB7B6818461837BD4680BDE0
:1025A00080B483B000AF78604FF0FF3318460C372B
:1025B000BD4680BC704780B483B000AF786039609E
:1025C0003B684FF400525A60002318460C37BD4652
:1025D00080BC704780B483B000AF78600123184698
:1025E0000C37BD4680BC704780B485B000AFF86042
:1025F000B9607A60002318461437BD4680BC704726
:1026000080B586B000AF7860144A154BD31A7B6151
:102610007B693B61134B1B68002B02D1114B124AA3
:102620001A60104B1A687B6813443A699A4207D2C1
:1026300001F04AF803460C221A604FF0FF3309E01C
:10264000084B1B68FB60074B1A687B681344054AFC
:102650001360FB6818461837BD4680BD0050002047
:102660000004000008020020580300200D488546A1
:10267000FFF712FF0C480D490D4A002302E0D45821
:10268000C4500433C4188C42F9D30A4A0A4C0023BC
:1026900001E013600432A242FBD301F01BF8FFF704
:1026A00079FEFEE70050002000000020E401002039
:1026B000D8730008E401002058030020FEE7002B37
:1026C0002DE9F0471F46BBBF03F100431F4600231F
:1026D0002D2388B01446129A109D1370149BDDF8B8
:1026E0004CA023F02008B8F1460F05D0B8F1450FF3
:1026F00000D10135022300E0032307AA049206AAB1
:10270000CDE902A2CDE9003522463B4601F0A8F80A
:10271000B8F1470F064602D1119BDB0722D5B8F16D
:10272000460F06EB050910D13378302B0AD1002271
:10273000002320463946FEF747F918B9C5F10105CF
:10274000CAF80050DAF800309944002200232046ED
:102750003946FEF739F908B1CDF81C903022079BB5
:102760004B4507D33046079B159A9B1B136008B057
:10277000BDE8F087591C07911A70F0E70346F7B5DA
:10278000002903F8022BB6BF2D222B22494209292A
:1027900042702ADD0DF1070217460A2691FBF6F575
:1027A000944606FB151430340CF8014C0C46632C8F
:1027B000294602F1FF32F1DC3031ACF1020402F8BB
:1027C000011C2246411CBA420AD30DF10902A2EBB8
:1027D0000C02BC4288BF00221344181A03B0F0BD9B
:1027E00012F8015B01F8015FEDE7302330318370AF
:1027F000C170031DF1E700002DE9F04F91B00C46C8
:10280000DDF8688016461F46054600F013FF036892
:1028100018460993FDF7ACFC00230E93D8F800305E
:102820000A90073323F0070303F1080294F8189085
:10283000D4F800B0C8F80020D3E900A852464346B7
:10284000C4E9122328F000430B934FF0FF325046A7
:102850009C4B0B99FEF7EAF870BB4FF0FF325046E5
:10286000984B0B99FEF7C4F830BB0022002350466A
:102870004146FEF7B3F810B12D2384F84330924A55
:10288000924BB9F1470F94BF9046984603234FF0FF
:10289000000A23612BF004032360334621462846B7
:1028A00000970FAA00F0D6F9013040F090804FF069
:1028B000FF3011B0BDE8F08F5246434650464146C6
:1028C000FEF7B4F848B1B8F1000FB8BF2D23804A25
:1028D000B8BF84F843307F4BD3E7636809F0DF016A
:1028E0005A1C42D106236360002206920EAACDE94B
:1028F00004920DAA4BF4806303920DF13302CDE9EB
:1029000001322360636852460093284643460B9188
:10291000FFF7D5FE0B99804647290D9908D1C81CB1
:1029200002DB6368994240DDA9F102095FFA89F987
:10293000B9F1650F1FD84A46013904F150000D91D5
:10294000FFF71CFF0E9A82461318012A236102DC4E
:102950002268D20701D5013323619DF83330002B63
:102960009BD02D2384F8433097E74729BCD1002B17
:10297000BAD10123B7E7B9F1660F18D1002963680E
:102980000BDD216113B92268D00702D501330B4456
:1029900023614FF0000AA165DFE713B92268D2076F
:1029A00001D50233F4E70123F2E74FF067090E9BEC
:1029B000994205DB23682161D807EAD54B1CE7E77C
:1029C0000029CCBF0122C1F102021344E0E72368D1
:1029D0005A0507D42369424631462846B847013094
:1029E0002BD164E7B9F1650F40F2DD80D4E9120123
:1029F00000220023FDF7E8FF002833D001233146F1
:102A00002846354AB84701303FF451AFDDE90D2380
:102A10009A4202DB2368D8070FD5DDE90923314646
:102A20002846B84701303FF442AF4FF0000804F1A8
:102A30001A090E9B013B434509DC23689B0700F103
:102A40000481E0680F9B9842B8BF184631E7012324
:102A50004A4631462846B84701303FF428AF08F1CE
:102A60000108E6E70D9B002B38DC012331462846A0
:102A7000194AB84701303FF41AAFDDE90D3213436C
:102A800002D12368D907D8D5DDE909233146284684
:102A9000B84701303FF40BAF4FF0000904F11A0AB8
:102AA0000D9B5B424B4501DC0E9B94E70123524694
:102AB00031462846B84701303FF4F9AE09F1010923
:102AC000EEE700BFFFFFEF7FA76F0008AB6F0008C6
:102AD000AF6F0008B36F0008B76F00080E9AA36DC0
:102AE0009A42A8BF1A46002A914637DC4FF0000BE5
:102AF00029EAE97904F11A02D4F858A0AAEB0903EB
:102B00005B4533DCDDE90D239A423BDB2368DA07C2
:102B100038D4DDE90D32A2EB0309A2EB0A0291459C
:102B2000A8BF9146B9F1000F34DC4FF0000829EA44
:102B3000E97904F11A0ADDE90D239B1AA3EB0903D5
:102B400043457FF77AAF0123524631462846B847BE
:102B500001303FF4ACAE08F10108ECE71346314612
:102B600042462846B8470130C0D1A0E6012331468D
:102B700028460B92B84701303FF499AE0B9A0BF1FF
:102B8000010BB9E73146DDE909232846B847013092
:102B9000BFD18CE64B463146284608EB0A02B847BF
:102BA0000130C2D183E60E9A012A01DCDB0739D558
:102BB0000123424631462846B84701303FF477AEFC
:102BC000DDE9092331462846B84701303FF46FAEAE
:102BD000D4E9120100220023DDF83890FDF7F4FE5D
:102BE000D8B909F1FF3308F1010231462846B84748
:102BF00001300ED15BE601234A4631462846B847EC
:102C000001303FF454AE08F101080E9B013B4345EF
:102C1000F1DC534604F15002DEE64FF0000804F107
:102C20001A09F2E701234246DFE701234A4631460B
:102C30002846B84701303FF43AAE08F10108E3688E
:102C40000F995B1A4345F0DCFBE64FF0000804F1F6
:102C50001909F4E72DE9F047164699468A680B6989
:102C600007469342B8BF1346336091F843200C46A1
:102C7000DDF820800AB1013333602368990642BF32
:102C8000336802333360256815F0060506D104F178
:102C9000190AE36832689B1AAB422BDC94F8432094
:102CA000131E226818BF0123920630D449463846C5
:102CB00004F14302C047013023D02368226903F0A6
:102CC0000603042B14BF002533684FF0000608BF2D
:102CD000E56804F11A0408BFED1A54F8123C08BF65
:102CE00025EAE5759342C4BF9B1AED18B5421AD187
:102CF000002008E00123524649463846C0470130CB
:102D000003D14FF0FF30BDE8F0870135C1E7302037
:102D1000E11881F843005A1C94F84510224402330C
:102D200082F84310C2E70123224649463846C0478D
:102D30000130E6D00136D9E72DE9FF470F7E9146F5
:102D4000782F80460C469A460C9D01F1430207D825
:102D5000622F0AD8002F00F0D580582F00F0C180D4
:102D600004F1420584F842703AE0A7F16303152BA1
:102D7000F6D801A151F823F0D12D0008E52D000867
:102D8000612D0008612D0008612D0008612D0008EB
:102D9000E52D0008612D0008612D0008612D000857
:102DA000612D0008EB2E0008112E0008A52E00084A
:102DB000612D0008612D00080D2F0008612D00080D
:102DC000112E0008612D0008612D0008AD2E0008AD
:102DD0002B681A1D1B682A6004F1420584F84230F2
:102DE0000123A0E020682B68070603F10401296095
:102DF00001D51E6803E04606FBD5B3F90060002E3E
:102E000003DA2D23764284F843300A23594812E02E
:102E10002B682068191D2960050601D51E6802E08F
:102E20004106FBD51E886F2F0CBF08230A2351488B
:102E3000002184F843106568002DA8BF2168A560B3
:102E4000A4BF21F0040121600EB9002D4BD015461E
:102E5000B6FBF3F103FB1167C75D05F8017D37464B
:102E6000BB420E46F4D9082B0BD12368DE0708D5E8
:102E7000236961689942DEBF302305F8013C05F102
:102E8000FF35521B22614B4621464046CDF800A03B
:102E900003AAFFF7DFFE01304AD14FF0FF3004B044
:102EA000BDE8F087236843F0200323607827324889
:102EB00084F84570236829681F0651F8046B02D412
:102EC0005F0648BFB6B2DF0748BF43F02003296062
:102ED00048BF23601EB9236823F02003236010231A
:102EE000A6E72448E4E71546BDE72B682668181DC9
:102EF0006169286035061B6801D5196002E070061B
:102F0000FBD51980002315462361BCE72B680021FF
:102F10001A1D2A601D686268284600F002FC08B18C
:102F2000401B606063682361002384F84330AAE794
:102F30002A46494640462369D0470130ADD0236830
:102F40009B0713D4E068039B9842B8BF1846A6E7D6
:102F50000123324649464046D04701309DD00135D5
:102F6000E36803995B1AAB42F2DCEBE7002504F15E
:102F70001906F5E7B96F0008CA6F00082DE9F04F90
:102F800087B003938B6817465A1EB2F5AE7F85BF94
:102F90006FF4AE755B190023029388BF40F25D1396
:102FA0008B464FF000058CBF8B6002930B68804608
:102FB00043F4F0634BF81C3B0C465E46AA46A94618
:102FC000CDE904550195A26852B13B681B784E2BA0
:102FD00064D8402B3CD8A3F12B01C8B20E283AD9B3
:102FE000B9F1000F03D0236823F4807323600AF142
:102FF000FF3ABAF1010F00F213815E4500F205813C
:103000000125284607B0BDE8F08FA3F161020D2A23
:10301000E6D801A151F822F057310008E12F00084D
:10302000E12F0008E12F0008B73100088F310008B8
:10303000E12F0008E12F000865310008E12F0008AA
:10304000E12F0008E12F0008E12F00081D310008E2
:10305000A3F14102DBE70E29C2D801A050F821F00C
:103060000F310008E12F00080F310008A3310008DC
:10307000E12F0008BD300008F9300008F9300008E1
:10308000F9300008F9300008F9300008F93000087C
:10309000F9300008F9300008F93000086E2B09D823
:1030A000602BB2D8542B77D0592B99D1072D97D1BB
:1030B000082529E0742B6FD0792BF6E72168C80525
:1030C0001AD5029B21F08001216009F101091BB191
:1030D000013B01320293A260A368013BA360236914
:1030E000013323617B68013B002B7B6040F38480CC
:1030F0003B6801333B6066E71AEB050F7FF470AF66
:10310000226822F4C072226006F8013BE4E72268DC
:1031100010067FF565AF22F08002F4E7BAF1000FE8
:103120000ED1B9F1000F0ED1226802F4E061B1F5C1
:10313000E06F08D122F4F0624FF0010A2260E3E769
:10314000BAF1020F55D0012D02D0042D7FF448AF03
:103150000135EDB2D8E7BAF1010F7FF441AF4FF07E
:10316000020AD1E77DB9B9F1000F7FF43CAF2268C4
:1031700002F4E061B1F5E06F7FF439AF22F4F06260
:1031800001252260C0E7032DE2D0052DDEE7022DE8
:103190007FF426AF0325B7E7062D7FF421AF07257F
:1031A000B2E7226891057FF51BAF22F420722260FE
:1031B000CDF80490A8E7226802F4A061B1F5806F11
:1031C00006D050057FF50CAFB9F1000F3FF40FAFFB
:1031D000910558BF019922F4F06258BFA9EB010193
:1031E00042F4C0724FF0000958BFCDE904162260C6
:1031F0008AE74FF0030A87E739464046D4F8803122
:10320000984700283FF4DFAEEAE6D4F87C313A462E
:10321000404616F8011D98472369013B2361ECE6FF
:103220006B1E062B25D8022D36D85E457FF6E8AEFC
:10323000D4F87C313A46404616F8011D9847236978
:10324000013B2361F1E70298D4F87C3110F8011DAD
:103250003A460290404698472369013B23610AF1B0
:10326000FF3A5FFA8AFABAF1020FECD1033DEDB2F0
:10327000761B2368DA052FD55B0510D55E457FF6F2
:10328000BFAED4F87C313A46404616F8011D984747
:103290002369013B2361F1E7AA460296DFE716F8AE
:1032A000011C2369652903F1FF3306F1FF35236112
:1032B0000CD045290AD0D4F87C313A46404698478C
:1032C000236916F8021C013BB51E23613A464046AD
:1032D000D4F87C3198472E46256815F0100555D155
:1032E0003570236803F4C063B3F5806F1DD1019B73
:1032F0004B45A3EB090225D100225946404602F076
:1033000043FC039BD4F800C01B681CF0020F064668
:103310000F4603F1040220D003990A601B68C3E939
:103320000067E3680133E3606BE6049B002BE3D0A6
:1033300005990A232A464046013102F0A9FC049B64
:10334000059EC21A04F26F139E4228BF04F5B77699
:1033500030460F4900F0E2F8CEE71CF0040FDBD155
:10336000DDF80CC0CCF80020D3F8008002460B46F4
:10337000FDF75CFB28B1074800F0E2F9C8F800004F
:10338000CFE730463946FDF7AFFBF7E7002538E6D3
:10339000DB6F00086D730008002310B50446C0E918
:1033A0000033C0E90433836081814366C281836155
:1033B000194608225C3000F035F90D4B2462636237
:1033C0000C4BA3620C4BE3620C4B23630C4B9C42F3
:1033D00006D003F16802944202D0D0339C4205D15A
:1033E00004F15800BDE8104000F098B910BD00BFCE
:1033F0005D3500087F350008B7350008DB3500086B
:103400000C020020024A0349034800F069B800BFDB
:103410001C000020496000082800002041680C4B77
:1034200010B59942044601D002F00EFEA168094B86
:10343000994202D0204602F007FEE168064B99420D
:1034400004D02046BDE8104002F0FEBD10BD00BF14
:103450000C02002074020020DC02002010B50B4B8F
:103460000B4C0C4A20461A6004210022FFF794FFFF
:1034700004F1680001220921FFF78EFF04F1D0005A
:103480000222BDE810401221FFF786BF440300204E
:103490000C02002005340008014800F040B900BFCC
:1034A0004D030020014800F03BB900BF4D03002050
:1034B00010B50446FFF7F0FF236A1BB1BDE81040CA
:1034C000FFF7F0BF044B2362044B1B68002BF5D1C0
:1034D000FFF7C4FFF2E700BF1D34000844030020DB
:1034E0002DE9F8430746884614460026D4E901959D
:1034F000B9F1010905D52468002CF7D13046BDE8A3
:10350000F883AB89012B07D9B5F90E30013303D00D
:1035100029463846C04706436835E9E70EB46FF0E0
:10352000004100B59CB01DAB02900690079104913C
:103530000848094953F8042B0591006802A9019332
:1035400002F002FC0022029B1A701CB05DF804EB32
:1035500003B07047740000200802FFFF10B50C464E
:10356000B1F90E1000F08CF80028ABBF636DA38991
:103570001B1823F48053ACBF6365A38110BD2DE9F4
:10358000F0411F468B890546DB050C46164605D5DE
:1035900002230022B1F90E1000F060F8A389324630
:1035A00023F48053A38128463B46B4F90E10BDE8AE
:1035B000F04100F077B810B50C46B1F90E1000F0EC
:1035C0004DF8431CA38915BF606523F4805343F471
:1035D0008053A38118BFA38110BDB1F90E1000F074
:1035E0002DB8000000B59BB0009104916FF0004130
:1035F0000591029105490391694602F0A5FB00225D
:10360000009B1A701BB05DF804FB00BF0802FFFFAF
:1036100013460A46014602480068FFF7E3BF00BFB1
:103620007400002003460244934200D1704703F81F
:10363000011BF9E7004870476801002038B50023F6
:10364000054D044608462B60FEF7AAFF431C02D135
:103650002B6803B1236038BD4803002038B5044609
:10366000084611460022054D2A601A46FEF7BCFFA7
:10367000431C02D12B6803B1236038BD48030020EE
:1036800038B50446084611460022054D2A601A4600
:10369000FEF74DFF431C02D12B6803B1236038BDF8
:1036A0004803002038B50446084611460022054D5F
:1036B0002A601A46FEF758FF431C02D12B6803B15B
:1036C000236038BD48030020014B1868704700BFD5
:1036D0007400002070B500260C4D0D4C641BA41026
:1036E000A64209D103F0C2FB00260A4D0A4C641B16
:1036F000A410A64205D170BD55F8043B9847013689
:10370000EEE755F8043B98470136F2E7D07300081E
:10371000D0730008D0730008D47300087047704756
:103720007047034610B5C9B202449342184601D10E
:10373000002003E0047801338C42F6D110BD000074
:10374000004870470000C07F2DE9F74F03690C69FE
:103750000746A3427FDB013C00F1140501F1140888
:1037600005EB8403019358F8243055F824200133E5
:103770009A42B2FBF3F64FEA840B08EB840931D38B
:103780004FF0000E4046AC46F24650F8042B93B280
:1037900006FB03E34FEA124E1A0C9BB206FB0E2205
:1037A000AAEB0303DCF800A04FEA124E1FFA8AFAD4
:1037B0005344DCF800A092B2C2EB1A4202EB23425F
:1037C0009BB243EA024381454FEA224A4CF8043B4C
:1037D000DBD255F80B302BB9019B043B9D421A46B6
:1037E0002DD33C61384601F0DFF9002823DB294660
:1037F0000020013658F8042BD1F800C093B2C31A48
:10380000120C1FFA8CF00344C2EB1C4202EB234261
:103810009BB243EA0243C1454FEA224041F8043BD0
:10382000E8D255F8242005EB840322B9043B9D42DD
:103830001A460AD33C61304603B0BDE8F08F1268E7
:10384000043B002ACDD1013CC8E71268043B002AA2
:10385000F0D1013CEBE70020EEE7000000000000A3
:103860002DE9F04F16461F46C46999B00546CDE9CB
:103870000467DDF8948074B9102000F01DFE024644
:10388000E86120B9EF21AC4BAC4802F055FCC0E92F
:1038900001440460C460EB69196851B15A6801239E
:1038A00093404A608B60284600F0FAFE0022EB69E4
:1038B0001A603B1EAFBF0023012223F00043059393
:1038C000A8BFC8F80030DDF814909D4BB8BFC8F809
:1038D000002033EA090319D142F20F73249A1360CE
:1038E000C9F31303334300F08985269B53B9954BE5
:1038F00023E0954B03930833269A1360039819B07D
:10390000BDE8F08F8F4B03930333F5E7DDE9043413
:10391000CDE90C34DDE90C0100220023FDF754F859
:10392000804660B10123249A1360269B002B00F08F
:103930006285864B269A1360013B0393DEE716AB44
:10394000019317AB00932846DDE90C2301F03CFA04
:10395000C9F30A548246002C7ED0DDE90C010D9B90
:10396000A4F2FF34C3F3130343F07F5343F4401333
:10397000CDF84C8019460022754BFCF705FC68A376
:10398000D3E90023FCF7B8FD67A3D3E90023FCF7D4
:10399000FDFB064620460F46FCF744FD64A3D3E931
:1039A0000023FCF7A9FD02460B4630463946FCF7DA
:1039B000EDFB06460F46FDF74FF800228346002335
:1039C00030463946FDF70AF848B15846FCF72AFD5B
:1039D00032463B46FCF7F8FF08B90BF1FF3BBBF161
:1039E000160F57D8DDE90C015A4B03EBCB03D3E993
:1039F0000023FCF7F3FF00284ED000230BF1FF3B20
:103A00000F93169B1B1B5A1E46BFC3F101090023CF
:103A10004FF00009099248BF0993BBF1000F3DDB4D
:103A2000099BCDF838B05B44099300230A93229B8D
:103A3000092B67D8052BC4BF043B2293229BC8BF28
:103A40000024A3F10203D8BF0124032B00F28680D7
:103A5000DFE803F02C393756DDE916431C4404F245
:103A60003243202BC1BFC3F1400309FA03F904F22A
:103A7000124326FA03F3D6BFC3F1200349EA030039
:103A800006FA03F0FCF7BEFC0122A1F1F873013C39
:103A900013926FE70123B3E70F90B2E7CBF1000376
:103AA0000A930023A9EB0B090E93C0E700230B93A5
:103AB000239B002B55DC01231A460693089323927F
:103AC0000BE00123F3E700230B93239B5B44069356
:103AD0000133012B0893B8BF012300210422E869B8
:103AE00002F114069E4240D94160284600F098FD3C
:103AF000039000283CD1024640F2AF11164BC3E6BA
:103B00000123E1E7012400230B9422934FF0FF33BC
:103B10000022069308931223D1E700BFAFF3008081
:103B200061436F63A787D23FB3C8608B288AC63FC3
:103B3000FB799F501344D33FED6F000804700008D9
:103B40000000F07FE96F0008E06F0008B86F000820
:103B50000000F83FF07000085C70000801230B9330
:103B6000D4E7239B06930893B7E701315200B7E7E8
:103B7000EB69039A1A60089B0E2B00F2A880002CB8
:103B800000F0A580BBF1000F34DD9A4B0BF00F0263
:103B900003EBC2031BF4807FD3E90034CDE910347A
:103BA0004FEA2B1416D0DDE90C01934B0327D3E920
:103BB0000823FCF7CBFDCDE9040104F00F048E4E81
:103BC00054B9DDE91023DDE90401FCF7BFFDCDE9BF
:103BD000040129E00227F2E7E10708D5DDE9100139
:103BE000D6E90023FCF788FCCDE910010137641009
:103BF0000836E5E700F0A580DDE90C01CBF1000413
:103C00007C4B04F00F0203EBC203D3E90023FCF763
:103C100073FC02270023CDE90401774E2411002C08
:103C200040F08480002BD2D1DDE90434CDE910349A
:103C30000F9B002B00F08780DDE9100100226F4B05
:103C4000FCF7CCFE00287ED0089B002B7BD0069B87
:103C5000002B38DDDDE910010022694BFCF74CFC3C
:103C6000CDE90401069C0BF1FF3801373846FCF71B
:103C7000D9FBDDE90423FCF73FFC0022614BFCF794
:103C800085FAA1F15076CDE910011196002C5DD195
:103C9000DDE9040100225C4BFCF776FA02460B4694
:103CA000CDE904233346109AFCF7B6FE002840F015
:103CB0009582DDE90401109A06F10043FCF78EFEBF
:103CC000002840F08982DDE90C34CDE90434179BEB
:103CD000002BC0F25181BBF10E0F00F34D81454B1B
:103CE00003EBCB03D3E90034CDE90634239B002B4F
:103CF00080F2DA80089B002B00F3D68040F06B82C4
:103D0000DDE906010022404BFCF7F6FBDDE9042368
:103D1000FCF778FE089C2646002840F041823123BB
:103D2000039F0BF1010B07F8013B3DE2E20705D5CC
:103D3000D6E90023FCF7E0FB0123013764100836C5
:103D40006DE7022770E7D846089C8FE70399294B57
:103D5000214412910B9903EBC403DDE9106753E989
:103D60000223002954D000202849FCF7EFFC3B46F1
:103D70003246FCF709FACDE91001039FDDE90401A1
:103D8000FCF76AFE0446FCF74DFB02460B46DDE9F4
:103D90000401FCF7F9F902460B463034CDE904235F
:103DA000DDE9102307F8014BFCF718FE002873D15A
:103DB000DDE9042300201149FCF7E6F9DDE91023D1
:103DC000FCF70CFE002840F0B680129B9F423FF4A7
:103DD0007AAFDDE910010022094BFCF78DFB0022D0
:103DE000CDE91001DDE90401054BFCF785FBCDE9C8
:103DF0000401C3E7F0700008C87000080000F03F3D
:103E00000000244000001C40000014400000E03F7F
:103E100030463946FCF770FB129BCDE91001039C3C
:103E20001493DDE90401FCF717FE1590FCF7FAFA8C
:103E300002460B46DDE90401FCF7A6F9159B064690
:103E4000303304F8013B129B0F469C424FF00002B6
:103E500024D1DDE91001AF4BFCF798F902460B467F
:103E600030463946FCF7D8FD002863D1DDE9102340
:103E70000020A849FCF788F902460B46304639462F
:103E8000FCF7ACFD00283FF41EAF149F7B1E14937B
:103E900017F8013C302BF8D0C3463BE09E4BFCF7B3
:103EA0002BFBCDE90401BCE7039FDDE90489DDE9D3
:103EB000062340464946FCF749FCFCF7CDFD044685
:103EC000FCF7B0FADDE90623FCF716FB02460B46C9
:103ED00040464946FCF758F904F1300607F8016BF3
:103EE000039EDDF820C0BE1BB44502460B4636D10A
:103EF000FCF74CF9DDE9062380468946FCF78CFD8A
:103F000058BBDDE9062340464946FCF75DFD08B194
:103F1000E30722D45146284600F0C2FB0023249A2E
:103F20003B700BF101031360269B002B3FF4E6ACC2
:103F30001F60E3E427463B461F4613F8012D392A4C
:103F400007D1039A9A42F7D13022039908F1010868
:103F50000A701A7801321A709EE7D846EBE7002201
:103F60006D4BFCF7C9FA0022002380468946FCF716
:103F70002BFD00289BD0CDE70B9A002A00F0C480CF
:103F8000229A012A00F3A880139A002A00F0A08048
:103F900003F233434F460A9C099A01211A442846EA
:103FA0009944099200F07CFC06465FB1099B002B06
:103FB00008DDBB42A8BF3B46099AA9EB0309FF1ADB
:103FC000D31A09930A9BF3B10B9B002B00F0A0803E
:103FD000002C10DD31462246284600F01FFD5246D7
:103FE00001460646284600F071FC804651462846A8
:103FF00000F056FBC2460A9B1A1B04D051462846C5
:1040000000F00CFD82460121284600F049FC0E9B81
:104010000446002B40F382801A460146284600F0F1
:10402000FDFC229B0446012B7BDD4FF00008236939
:1040300004EB8303186900F0E5FBC0F12000099B45
:10404000184410F01F0000F09280C0F12003042BF0
:1040500040F38580099BC0F11C0003448144074460
:104060000993B9F1000F05DD51464A46284600F094
:104070002FFD8246099B002B05DD21461A46284666
:1040800000F026FD04460F9B002B72D021465046BF
:1040900000F08AFD00286CDA002351460A222846E7
:1040A00000F020FB0B9B82460BF1FF3B002B00F046
:1040B000AC81002331460A22284600F013FB069B00
:1040C0000646002B00F39380229B022B59DC8EE0E6
:1040D000169BC3F136035DE7089B5C1E0A9BA34257
:1040E000BFBF0A9B0E9AE31AD218A8BF1C1B089BDD
:1040F000BEBF0A940E920024002BB5BFA9EB0307A4
:104100004F460023089B47E74F460A9C0B9E4CE70F
:104110000A9A73E70000E03F00002440229B012B35
:1041200018DC049BB3B9059BC3F3130393B9059B38
:1041300023F000431B0D1B057BB14FF00108099BC9
:1041400009F10109013309930E9B002B7FF46FAF36
:10415000012074E74FF00008F6E79846F4E780D0B6
:10416000099A1C331A4499441F44099279E703467B
:10417000F6E7089B002B34DC229B022B31DD089BE9
:104180000693069B63B921460522284600F0AAFA49
:1041900001460446504600F007FD00283FF7BFAD3A
:1041A000239B039F6FEA030B4FF00008214628462C
:1041B00000F076FA002E3FF4ADAEB8F1000F05D056
:1041C000B04503D04146284600F06AFA31462846F9
:1041D00000F066FA9EE600242646E1E7C34626463E
:1041E0009DE50B9B002B00F0C880089B0693002FD9
:1041F00005DD31463A46284600F06AFC0646B8F12D
:10420000000F5BD02846716800F00AFA074628B90B
:10421000024640F2EF21814BFFF736BB326906F1CF
:104220000C01023292000C3001F072FF012239467B
:10423000284600F04DFCB0460646039B039A013326
:104240000893069B13440B93049B03F001030A930A
:10425000089B2146013B50460493FFF775FA4146FF
:10426000069000F13009504600F09EFC324609905D
:104270002146284600F0B4FCC268074602BB01464E
:10428000504600F091FC0246394628460C9200F058
:1042900007FA229B0C9A089F43EA02010A9B1943E2
:1042A00010D1B9F1390F29D0099B002B02DD069BF3
:1042B00003F13109049B83F8009077E73046BAE7B1
:1042C0000122E1E7099B002B04DB22990B430A99A9
:1042D0000B4320D1002AEDDD51460122284600F093
:1042E000F7FB2146824600F05FFC002803DCE1D1A9
:1042F00019F0010FDED0B9F1390FD8D13923049A62
:1043000013703B461F4617F8012C013B392A6BD02E
:1043100001321A704AE7002A07DDB9F1390FEDD0F2
:10432000049A09F10103137040E7089B0B9A03F804
:10433000019C934242D0514600230A22284600F0B5
:10434000D1F9B04582464FF000034FF00A024146D2
:10435000284607D100F0C6F980460646089B01337F
:10436000089375E700F0BEF93146804600230A2223
:10437000284600F0B7F90646F0E7089B0693039F2E
:1043800021465046FFF7E0F9039B00F1300907F89A
:10439000019BFA1A069B934207DD514600230A222D
:1043A000284600F09FF98246EAE7069B4FF0000896
:1043B000002BCCBF1F460127039B1F4451460122FF
:1043C000284600F085FB2146824600F0EDFB0028E0
:1043D00097DC02D119F0010F93D13B461F4613F829
:1043E000012D302AFAD0E1E6039A9A428AD131238C
:1043F0000BF1010B97E70A4BFFF79FBA269B002BA7
:104400007FF477AA074BFFF798BA069B002BB6DC20
:10441000229B022B3FF7B5AEB1E700BF5C700008EE
:10442000B76F0008E06F000838B50546002940D096
:1044300051F8043C0C1F002BB8BFE41800F0E4F85E
:104440001C4A136833B9636014602846BDE83840DD
:1044500000F0E0B8A34208D9206821188B4201BFC0
:1044600019685B6809182160EDE71A465B680BB1B3
:10447000A342FAD911685018A0420BD12068014418
:10448000501883421160E0D118685B6808441060DE
:104490005360DAE702D90C232B60D6E72068211895
:1044A0008B4201BF19685B68091821606360546022
:1044B000CBE738BD50030020024B0146186800F0DE
:1044C00023B800BF7400002070B50E4E0C46316852
:1044D000054611B901F00CFE30602146284601F076
:1044E00007FE431C0AD0C41C24F00304A04207D0DA
:1044F000211A284601F0FCFD013001D14FF0FF34B4
:10450000204670BD540300202DE9F843CD1C25F052
:10451000030508350C2D38BF0C25002D074601DB9F
:10452000A94205D90C2300263B603046BDE8F8833C
:10453000DFF8D08000F068F8D8F800301C465CBB8B
:1045400029463846FFF7C0FF431C044655D1D8F82A
:1045500000402646002E45D1002C48D02368314625
:10456000384604EB030901F0C3FD81453FD12168C2
:1045700038466D1A2946FFF7A7FF013037D0236868
:104580002B442360D8F80030002B38D05A68A24260
:104590002BD100225A600FE02268521B1FD40B2A35
:1045A00017D96119A342256018BF5960636808BF15
:1045B000C8F8001062514B60384604F10B0600F059
:1045C00029F826F00706231DF21AAED09B1BA35034
:1045D000ABE7A3426268DDD1C8F80020ECE72346D0
:1045E0006468ACE734467668B4E71346CCE70C233E
:1045F00038463B6000F00EF897E72560DCE75B602B
:10460000FFDE00BF500300200148FFF788B800BF5D
:104610004C0300200148FFF783B800BF4C03002083
:1046200070B5C66904460D4676B91020FFF744FF01
:104630000246E06120B96B21174B184801F07CFD60
:10464000C0E901660660C660E669F36883B1E369A4
:10465000DB6853F82500B8B9012101FA05F6721D8F
:104660002046920001F086FD60B1C0E901560EE0DF
:1046700021220421204601F07DFDE369F060DB6822
:10468000002BE4D1002070BD026843F825200023F0
:10469000C0E90333F7E700BFED6F00086D70000855
:1046A00070B5C66905460C4676B91020FFF704FFC1
:1046B0000246E86120B98F21084B094801F03CFD12
:1046C000C0E901660660C6603CB1EB696268DB6800
:1046D00053F82210216043F8224070BDED6F0008AE
:1046E0006D7000082DE9F04107460C461E4600207B
:1046F0000D6901F1140CDCF80030013099B202FBB5
:1047000001611E0C0B0C02FB063389B201EB034165
:1047100085424FEA13464CF8041BECDC0EB3A36849
:10472000AB4219DC616838460131FFF779FF8046FA
:1047300028B90246BA210C4B0C4801F0FDFC226955
:1047400004F10C01023292000C3001F0E1FC214630
:104750003846FFF7A5FF444604EB850301355E614B
:1047600025612046BDE8F0815C7000086D7000088E
:104770002DE9F843154609221F4608330C4693FBE2
:10478000F2F30646012200219A4209DB3046FFF788
:1047900047FF40B90246D321184B194801F0CCFC21
:1047A00052000131F0E7089B092D43614FF00103EE
:1047B000036116DD04F10909C8462C4418F8013BD1
:1047C00001460A223046303BFFF78CFFA045F5D169
:1047D000A5F108044C442D1B6319BB4204DBBDE862
:1047E000F88309250A34F6E714F8013B01460A224A
:1047F0003046303BFFF776FFEEE700BF5C70000805
:104800006D700008020C12040346CAB9030410209C
:1048100013F07F4F04BF1B02083013F0704F04BF2A
:104820001B01043013F0404F04BF9B000230002BEB
:1048300005DB13F0804F00F1010008BF2020704716
:104840000020E5E70368024613F007000BD0D90704
:1048500021D4980749BF5B089B08012013605CBF07
:1048600002201360704799B209B910201B0CD9B20D
:1048700009B908301B0A190704BF1B09043099073E
:1048800004BF9B080230D90703D45B0800F1010084
:1048900003D013607047002070472020704700004D
:1048A00010B50C460121FFF7BBFE024628B940F2C5
:1048B0004511044B044801F03FFC012344610361AE
:1048C00010BD00BF5C7000086D7000082DE9F04F4E
:1048D00091460A69D9F810300C469A42BEBF0B4681
:1048E0004C4699462769D9F810A0A368616807EB80
:1048F0000A06B34285B0B8BF0131FFF791FE30B967
:1049000002464FF4B171434B434801F015FC00F1EE
:1049100014052B46002205EB8608434521D304F1FC
:10492000140303EB870709F1140303EB8A020292D5
:104930003A1B153A22F00302043204F115018F42AA
:1049400038BF04220192029A03939A420CD8002E97
:1049500003DD58F8043D002B5AD0066105B0BDE8D0
:10496000F08F43F8042BD8E7B3F800A0BAF1000F9A
:1049700023D0A9464FF0000C04F1140E5EF8042B6E
:10498000D9F800101FFA82FB89B20AFB0B116144AF
:10499000D9F800C0120C4FEA1C4C0AFB02C202EB11
:1049A000114289B241EA024177454FEA124C49F877
:1049B000041BE3D8019A45F802C0039A0433B2F805
:1049C0000290B9F1000F21D0AE464FF0000A2968DD
:1049D00004F1140CBCF800B0BEF8022089B209FB47
:1049E0000B22524441EA02414EF8041B5CF8041BBE
:1049F0004FEA114ABEF80010674509FB0A1101EBA6
:104A000012414FEA114AE5D8019AA95004359AE7B4
:104A1000013E9CE75C7000086D7000082DE9F843CA
:104A2000154612F0030206460F4607D0254C013A00
:104A3000002354F82220FFF755FE0746AD103DD065
:104A4000F4697CB91020FFF737FD0246F06128B900
:104A500040F2B3111C4B1D4801F06EFBC0E901444C
:104A60000460C460D6F81C80D8F808404CB940F205
:104A700071213046FFF714FF00230446C8F80800F0
:104A800003604FF00009EB070AD53946224630464D
:104A9000FFF71CFF804639463046FFF701FE4746C8
:104AA0006D100BD0206838B9224621463046FFF7FA
:104AB0000DFF2060C0F800900446E4E73846BDE8EA
:104AC000F88300BFB8710008ED6F00086D70000832
:104AD0002DE9F0470C46074691462369496803EBE8
:104AE0006218A3684FEA621A08F10106B3420BDBB1
:104AF0003846FFF795FD054648B902464FF4EF7179
:104B0000274B284801F018FB01315B00EEE700233A
:104B100000F1140100F110021846534533DB2069FF
:104B20002AEAEA7A04F1140319F01F0901EB8A0159
:104B300003EB800C2BD08A460022C9F1200E1868A6
:104B400000FA09F010434AF8040B53F8042B9C4573
:104B500022FA0EF2F3D8ACEB0403153B23F0030367
:104B6000043304F11500844538BF0423CA500AB148
:104B700008F10206013E384621462E61FFF790FDFE
:104B80002846BDE8F08742F8040F0133C5E7043931
:104B900053F8042B9C4541F8042FF9D8EAE700BFED
:104BA0005C7000086D70000803460A69006930B542
:104BB000801A0DD11433143103EB820401EB82010E
:104BC00054F8045D51F8042D954202D004D301201D
:104BD00030BDA342F4D3FBE74FF0FF30F8E700000D
:104BE0002DE9F84F0D460746114628461446FFF7B3
:104BF000DBFF061E11D131463846FFF711FD024694
:104C000028B940F237213A4B3A4801F095FA01238E
:104C1000C0E904361046BDE8F88FA4BF23462C46F1
:104C200038466168A6BF1D4600260126FFF7F8FC3E
:104C3000024618B940F245212D4BE5E702F1140870
:104C4000C2464FF0000C2769C6602E6904F11400BB
:104C500005F1140900EB870E09EB8606103454F8B1
:104C600004BF59F8043B1FFA8BF161441FFA83FC1F
:104C70001B0CA1EB0C01C3EB1B4303EB214389B2DB
:104C800041EA03414E454FEA234C4AF8041BE6D85B
:104C9000731B153B23F0030315350433AE4238BFB5
:104CA0000423184443441E46054675450ED30EF1B1
:104CB0000301091A21F003010338864538BF00219A
:104CC0000B4453F8041D89B11761A3E755F8048B11
:104CD0001FFA88F161440C1404EB184489B241EACC
:104CE00004414FEA244C46F8041BDEE7013FE8E7A5
:104CF0005C7000086D7000080E4B0B40A3F1507300
:104D0000002B08DC5B42B3F1A07F4FEA235204DAA8
:104D10004FF400231341002208E0A2F114031E2BDC
:104D2000D6BF4FF000420122DA4000231946104658
:104D3000704700BF0000F07FF8B5056900F1140767
:104D400007EB850555F8044C2E1F2046FFF75AFD4A
:104D5000C0F120020A280346DFF868C00A6012DCAE
:104D6000C0F10B0E24FA0EF2B74242EA0C012CBF3E
:104D7000002255F8082C153304FA03F322FA0EF238
:104D80001A431046F8BDB7422EBF002255F8082C32
:104D9000A5F108060B3B12D0C3F1200522FA05F15C
:104DA0009C400C43BE4244F07F5194BF002456F80F
:104DB000044C9A40EC4041F440112243E1E744EABC
:104DC0000C01DEE70000F03FF7B5012117461C4655
:104DD000089EFFF725FC054630B9024640F20F3128
:104DE000224B234801F0A8F9C4F31303C4F30A5477
:104DF00024BB002F019326D068460097FFF722FDC1
:104E0000DDE90012E8B1C0F1200302FA03F30B431D
:104E1000C2406B610192019B002B14BF0221012152
:104E2000AB612961BCB1A4F2334404443460C0F1E5
:104E30003500099B1860284603B0F0BD43F4801389
:104E4000D7E76961E7E701A8FFF7FCFC019B0121B7
:104E50006B612030E5E7A0F2324005EB8103306062
:104E60001869FFF7CFFCC0EB4110E2E75C70000867
:104E70006D7000082DE9F74F884669468146FFF7B7
:104E80005BFF0F4604460D46404601A9FFF754FF5D
:104E9000D9F81030D8F810208B46A3EB020CDDE9CE
:104EA00000329B1A03EB4C13002BD5BF0A462A464F
:104EB000C3EB033302EB0357D8BF02EB035B5B4644
:104EC000024639462046FBF741FC03B0BDE8F08FAF
:104ED000013970B549111469013102F1140300EB75
:104EE000810103EB8404051FA3420CD3A31A113BD9
:104EF00023F003031132A24288BF00231844002389
:104F0000884205D370BD53F8046B45F8046FEBE796
:104F100040F8043BF4E700F1140200694B11984299
:104F200010B511DB0ADD11F01F0107D052F8234044
:104F300024FA01F000FA01F18C420BD102EB830359
:104F4000934203D8002010BD0346F7E753F8041D31
:104F50000029F5D00120F6E72DE9F0410F469046F3
:104F6000FFF7CAFE04460D46B8F1000F11D0C7F393
:104F70000A53C3F16B03002B0BDD00241B0503F167
:104F80007F5505F5401522462B46FBF7B5FA04463A
:104F90000D4620462946BDE8F081000000000000D3
:104FA0002DE9F04F9FB01792002204461A920D4649
:104FB0004FF000084FF000090A46199211782B298A
:104FC0004AD038D80D2932D8082932D800293BD008
:104FD00000220E92199E3278302A40F0B280727808
:104FE00002F0DF02582A6ED102930E9B20460193F5
:104FF0001AAB00938C4A1BAB19A901F037F910F0DA
:105000000F07054605D0062F28D100230136199633
:105010000E93179B002B40F0A0850E9BCBB1424610
:1050200009F10043104619461FB0BDE8F08F202952
:10503000CED10132C1E72D29CAD101210E91511CD7
:1050400019915278002AC5D1179B1995002B40F071
:10505000828542464B46E5E70021EFE71A9A3AB1CE
:1050600035211CA8FFF734FF20461A99FFF718FBDB
:10507000013F1B9A042F06D8DFE807F014031D2018
:105080001400DDE91C89E90548BF49F0004929F011
:1050900000431B0D1B05002BBBD1FEF715FB222384
:1050A0000360B6E702F23342DDE91C8323F4801388
:1050B00043EA0259E7E7DFF87491E4E76FF000494B
:1050C0004FF0FF38DFE7199B5A1C19925B78302BA1
:1050D000F9D0002B9DD001234FF0000A0A22D346BD
:1050E0000593199BCDF828A00B9319980678A6F183
:1050F0003003D9B2092926D901224D4900F0E6FF33
:10510000002830D00020324603465E460890652ACB
:1051100001D0452A13D11EB9059A024394D0002626
:10512000199D6A1C19926A782B2A74D02D2A78D07E
:105130004FF0000CA2F1300109297FD91995002701
:105140009EE00023C8E7BBF1080FD8BF0A9900F121
:105150000100D6BF02FB013302FB0A3A0A930BF1AE
:10516000010B1990C1E7199B5A1C19925A78BBF18F
:10517000000F37D05E460890A2F13003092B12D9F8
:105180000123C4E7199B01305A1C19925A78302A1E
:10519000F8D0A2F13103082B00F2E484089000203B
:1051A0000646199B0B93303A00F1010314D008997D
:1051B00000EB060C1944089133460A21634513D1CC
:1051C0003318082B06F1010606441ADC0A230A9953
:1051D00003FB01230A930023199A1846511C1991C5
:1051E0005278C9E75846D2E7082B03F1010303DCE4
:1051F0000A9F4F430A97E1E7102BD8BF01FB0AFA39
:10520000DCE7102EDCBF0A2303FB0A2AE3E70023B6
:105210000893012380E74FF0000CAA1C1992AA788A
:1052200088E74FF0010CF8E7C87100080000F07F34
:10523000C4710008199A511C19915278302AF9D07A
:10524000A2F1310108293FF67AAF303A0992199A52
:105250000C92199A571C19975278A2F1300EBEF190
:10526000090F38D90C997F1A082F44F61F6703DC01
:1052700009998F42A8BF0F46BCF1000F00D07F42B2
:10528000002E4FD1059901437FF4C3AE002B7FF46C
:10529000DBAE692A29D026DC492A26D04E2A7FF4A3
:1052A000D3AE9A4919A801F023FA00283FF4CCAEF6
:1052B000199B1B78282B2FD195491CAA19A801F0FE
:1052C0002BFA052828D11D9BDDF8708043F0FF499B
:1052D00049F4E0099DE60A21099F01FB0721A1F19C
:1052E00030020992B5E76E2AD9E78A4919A801F078
:1052F000FFF900283FF4A8AE199B8749013B19A884
:10530000199301F0F5F910B9199B013319934FF076
:105310000008DFF808927CE6814800F007FF80462D
:10532000894676E6089BBBF1000F08BFB346FB1A1F
:10533000102E0A9835460993A8BF1025FBF762F88E
:10534000092E8046894613DD764B03EBC50353E9EE
:105350001223FBF7D1F8804650468946FBF752F8F6
:1053600002460B4640464946FAF710FF80468946FA
:105370000F2E36DC099B002B3FF44BAE22DD162BA3
:1053800009DC6849424601EBC3014B46D1E9000103
:10539000FBF7B2F8C3E7099AC6F12503934220DB75
:1053A000604CC6F10F0604EBC6014246D1E900018C
:1053B0004B46FBF7A1F8099B9E1B04EBC604D4E9FE
:1053C0000023E5E7099B16330BDB089B4046DF1BF8
:1053D000544B494603EBC707D7E90023FBF7B6F95F
:1053E0009DE7099B751B1D44002D70DD15F00F0313
:1053F0000AD04C49424601EBC301D1E900014B46BA
:10540000FBF77AF88046894635F00F054DD0B5F5A3
:105410009A7F22DD0026B3460B96089622234FF092
:105420000008DFF8F89023600B9B002B3FF4F1ADF0
:1054300020461A99FFF734F920460899FFF730F90A
:1054400059462046FFF72CF920460B99FFF728F91B
:1054500031462046FFF724F9DBE5334B4046059300
:10546000002349469A462D11012D21DC0BB18046BF
:1054700089462D49A9F1547901EBCA014246D1E987
:1054800000014B46FBF738F8244B0A460B402749EE
:1054900080468B42BED8A1F580118B4286BF4FF06B
:1054A000FF38DFF88C9002F15479002305937BE0FC
:1054B000EA0705D5059BD3E90023FBF71DF8012377
:1054C000059A0AF1010A08326D100592CCE7ECD07A
:1054D0006D4215F00F020AD0124B404603EBC20397
:1054E0004946D3E90023FBF731F9804689462D115F
:1054F000DBD01F2D1EDD0026B3460B960896222317
:105500004FF000084FF0000923608DE7B46F0008EA
:10551000DC710008AC6F0008E36F00080000F07F4A
:105520006D730008F0700008C87000080000A07CCF
:10553000FFFFEF7F15F0100318BF6A234046059365
:1055400049460023DFF8C8A2EA0704D5DAE90023B8
:10555000FAF7D2FF01236D100AF1080AF4D10BB15A
:1055600080468946059BBBB1C9F30A52C2F16B0361
:10557000002B494610DD1F2B40F32881342BD8BF68
:105580004FF0FF334FF00008CFBF4FF05C79C2F10E
:105590004B02934003EA010900220023404649469A
:1055A000FBF712FA0028A6D10A9B5A460093204620
:1055B00033460B99FFF7DCF80B9000283FF42AAF35
:1055C0000026099A089B002AA3EB0703A8BF002323
:1055D000B346129322EAE27316930B9B2046596856
:1055E000FFF71EF8089000283FF418AF0B9B0C3013
:1055F0001A6903F10C010232920000F089FD1CAB24
:1056000001931BAB009342464B462046CDF83080B9
:10561000CDF83C90FFF7D8FB1A9000283FF4FEAE7F
:1056200001212046FFF73CF9834600283FF4F6AEFF
:105630001B9F1C9A002FABBF129B169B07EB030A04
:10564000DD1B059BA8BF169DA7EB03071744714BF5
:1056500007F1FF37B8BFDDF848A09F42C2F136021C
:1056600080F2C780DB1B1F2B4FF00101A2EB03026E
:1056700000F3B38001FA03F31393002310930AEBB2
:105680000207059BBA4515441D445346A8BF3B4637
:10569000AB42A8BF2B46002BC2BFFF1AED1AAAEBE4
:1056A000030A129B002B17DD59461A462046FFF7C6
:1056B000B5F9834600283FF4B1AE01461A9A204658
:1056C000FFF704F90A9000283FF4A8AE20461A9983
:1056D000FEF7E6FF0A9B1A93002F00F38F80099BC9
:1056E000002B08DD2046169A0899FFF797F90890D5
:1056F00000283FF493AE002D08DD2A462046089985
:10570000FFF7E6F9089000283FF488AEBAF1000FE1
:1057100008DD594652462046FFF7DAF9834600284D
:105720003FF47CAE2046089A1A99FFF759FA0646CC
:1057300000283FF473AE0025C3685946C5600A933C
:10574000FFF732FAA8426BDA0A9B53EA080340F0EB
:105750008F80C9F31303002B40F08A8029F00043A7
:105760001B0D1B05B3F1D66F40F28280736913B92C
:105770003369012B7CDD314601222046FFF7A8F971
:1057800059460646FFF710FA002871DD05994B4689
:10579000214A002900F08D8002EA0901B1F1D66F9B
:1057A00000F38780B1F15C7F7FF7A9AE40464946A0
:1057B0001A4B0022FAF7A0FE174B80460B40894691
:1057C000002B7FF435AE2223236031E64FF0FF3209
:1057D00002FA03F303EA0808DEE6C7F17F4707F59C
:1057E0007F0707F57B47E23701FA07F31093139120
:1057F00045E7002310930123139340E73A462046E0
:105800001A99FFF765F91A9000287FF468AF05E64A
:10581000F071000802FCFFFF0000F07F000050392B
:10582000CA4665D10A9AC9F3130352B39E4A9342FA
:105830002AD1059B4146FBB19C4B4FF0FF3209EA50
:105840000303B3F1D46F1AD81B0DC3F16B0302FA33
:1058500003F3994218D1964B9A4502D101313FF496
:10586000DDAD4FF00008914B0AEA030303F5801900
:10587000059B002B9AD1DBE54FF0FF33E9E7134698
:10588000E7E753EA080381D0109BE3B113EA0A0F5C
:10589000EED00A9B40464946059AC3B1FFF75CFB30
:1058A00002460B460C980F99FAF770FC8046894621
:1058B000DEE71340A3F580136FEA13594FF0FF386A
:1058C0006FEA0959D4E7139B13EA080FE0E7FFF7E3
:1058D00043FB02460B460C980F99FAF755FC002241
:1058E000002380468946FBF76FF80028C0D006E603
:1058F00059463046FFF7BEFA02460B46CDE9102363
:1059000000224FF08043FBF773F800286FD00A9B0A
:10591000002B7CD1B8F1000F59D1C9F31303002B30
:105920007BD1DDE910010022624BFBF757F800281C
:105930005AD1DDE9100100225F4BFAF7DDFD054683
:105940000F4607F1004306950793DDE90623CDE9ED
:105950001023564B554A0AEA03031393574B0AEA9E
:1059600002029A4240F0B080AAF15479404649467A
:10597000FFF7C2F9DDE90623FAF7BEFD42464B46C2
:10598000FAF704FCDFF824A14D4A01EA0A0A92451D
:10599000804648D90F9A464B9A4203D10C9B01335B
:1059A0003FF43CAD4FF0FF38DFF8049120461A99E0
:1059B000FEF776FE20460899FEF772FE594620460D
:1059C000FEF76EFE31462046FEF76AFE05E6B8F1A8
:1059D000010F03D1B9F1000F3FF491AD0022394B13
:1059E0000A9DCDE9062316E00A9D334FA9E7324B05
:1059F0000022DDE91001FAF77FFD0A9B05460F46FC
:105A0000002B9ED002460B46CDE906239DE70022DF
:105A1000284BCDE90623274F97E70022294B45461F
:105A2000CDE90623F7E701F15479059BCA46002B1F
:105A3000BCD129F00043139A1B0D1B059A42B5D126
:105A400028463946FBF7A0F8FAF728FD02460B4630
:105A500028463946FAF798FB0B460246C9F3130A63
:105A6000CDE90C230A9B4AEA080A5AEA030A6CD0D9
:105A700009A3D3E90023FAF7B1FF00287FF4D8ACDB
:105A800007A3D3E90023DDE90C01FAF7C5FF0028DD
:105A90008CD0CDE4AFF300809535A094FFFFDF3FBD
:105AA00035E5AF350000E03FFFFF0F000000F07F5D
:105AB000FFFFEF7F0000F03F0000E03F0000E07FCD
:105AC000FFFF9F7C0000F0BF059B33B3139BB3F136
:105AD000D46F22D828A3D3E9002328463946FAF701
